:020000040800F2
:10000000A0140020F9020008331E00081F1E00087B
:100010002F1E00089F1C00086D240008000000002F
:10002000000000000000000000000000E91F0008C0
:10003000A31C000800000000C11E000811210008D8
:100040001303000813030008130300081303000838
:100050001303000813030008130300081303000828
:100060001303000813030008130300081303000818
:100070001303000813030008130300081303000808
:1000800013030008130300081303000813030008F8
:1000900013030008130300081303000813030008E8
:1000A00013030008130300081303000813030008D8
:1000B00015230008130300081303000813030008A6
:1000C00013030008130300081303000813030008B8
:1000D00013030008130300081303000813030008A8
:1000E0001303000813030008130300081303000898
:1000F0001303000813030008130300081303000888
:100100001303000813030008130300081303000877
:100110001303000813030008130300081303000867
:100120001303000813030008130300081303000857
:100130001303000813030008130300081303000847
:100140001303000813030008130300081303000837
:100150001303000813030008130300081303000827
:100160001303000813030008130300081303000817
:100170001303000813030008130300081303000807
:1001800013030008130300081303000813030008F7
:1001900013030008130300081303000813030008E7
:1001A00013030008130300081303000800F002F80B
:1001B00000F092F80AA090E8000C82448344AAF16F
:1001C0000107DA4501D100F087F8AFF2090EBAE86D
:1001D0000F0013F0010F18BFFB1A43F0010318477B
:1001E000B42B0000D42B0000103A24BF78C878C18B
:1001F000FAD8520724BF30C830C144BF04680C602D
:10020000704700000023002400250026103A28BF74
:1002100078C1FBD8520728BF30C148BF0B60704778
:100220006E2900F00483702900F06584662902F0CD
:100230000A85652902F00785672902F0048561298E
:1002400002F0038503681B0A28BF41F08001692979
:1002500000F0CC80642900F0C980752900F0C680C8
:100260006F2900F0F283782900F03184E92900F049
:100270008D83E42900F08A83F52900F08783EF2934
:1002800000F0EF83F82900F030840368DB0928BF11
:1002900041F08001632900F00E83732900F013837D
:1002A000E32901F00F80F32901F01480002070474A
:1002B0001FB502F0C3FC01F05FF80400002000212C
:1002C00002F0A6FC401C60600020002102F08AFCC5
:1002D000E0601FBD10B510BD01F020F81146FFF71A
:1002E000E7FF02F08FFB01F0FDF803B4FFF7F2FF28
:1002F00003BC01F005F900000948804709480047A0
:10030000FEE7FEE7FEE7FEE7FEE7FEE7FEE7FEE7C5
:10031000FEE7FEE704480549054A064B7047000022
:1003200025220008AD010008A0020020A014002032
:10033000A0040020A00400207CB51D4616460C0039
:10034000009001D02044401E074B7B442A4669465A
:100350000190304600F085FA05461CB10020694640
:1003600000F092FA28467CBD450500000FB41CB58C
:10037000084B06AA7B4469460090059800F071FA84
:1003800004460020694600F07FFA20461CBC5DF858
:1003900014FB00001105000070B50C460546012A4B
:1003A00005D02878800600D5EA69002302E0012301
:1003B00005E05B1C934202D2E05C0028F9D1A869F9
:1003C000E618C01AA861286A18442862284600F076
:1003D0009CF904E0D5E9012114F8010B9047B442DF
:1003E000F8D3284600F0A7F970BD00002DE9F041D0
:1003F0000646002410687529314616A510D000F075
:10040000ABF9002802DA404213A507E031688A07F9
:1004100001D512A502E0490704D511A5012401E088
:1004200000F0A3F900210A2206F1240709E0B0FB3D
:10043000F2FCB0FBF2F302FB1C003030785418469B
:10044000491C0028F3D123462A463046BDE8F04136
:1004500000F094B9000000002D0000002B00000007
:10046000200000002DE9F05F894604464FF0000AA5
:10047000DFF874B1FB44C0F820A02046E16888474B
:10048000002874D0252806D0D4E901219047206A9D
:10049000401C2062F1E700265F462046E16888475D
:1004A0002028054607DB312D05D2781910F8200CDD
:1004B00008B10643F1E7B00701D526F00406C4F8F9
:1004C0001CA00027C4F818A02A2D09D0284602F045
:1004D0001CF838B304EB8708303DC8F8185019E011
:1004E00059F8041B204604EB87029161E1688847B4
:1004F000012F054618D1E069002820DA26F02006F1
:100500001DE0D8F8180000EB800005EB4000303803
:10051000C8F818002046E1688847054601F0F5FF55
:100520000028EED1012F0AD02E2D08D12046E168F7
:1005300088477F1C0546022F46F02006C4DBA069D1
:10054000002803DA404246F00106A061F00701D01E
:1005500026F010066C2D0BD0682D09D04C2D39D00B
:100560006A2D35D0742D35D07A2D33D016E038E091
:10057000E1682F4620468847B842054609D16C2FCE
:1005800026D04FF48060E168064320468847054640
:1005900004E06C2F1AD04FF4807006430DB3A5F120
:1005A0004100192802D8203546F400664A462946FB
:1005B000204626604E46FFF733FE80B101280BD05F
:1005C000F61D26F0070000F1080956E74020E4E791
:1005D0008020D8E70020D6E706F104094DE7284639
:1005E00052E7206ABDE8F09FE227000040EA0103DD
:1005F000024630B59B0710D14FF0013400E008C22D
:1006000008C91D1B9D4315EAC41FF8D013F0FF0154
:1006100002F8011B0DD01B0AF8E711F8013B002B73
:1006200002F8013B05D011F8013B002B02F8013B19
:10063000F3D130BD4FF0000200B513469446964604
:10064000203922BFA0E80C50A0E80C50B1F12001E5
:10065000BFF4F7AF090728BFA0E80C5048BF0CC093
:100660005DF804EB890028BF40F8042B08BF7047F1
:1006700048BF20F8022B11F0804F18BF00F8012B63
:10068000704700004FF0013C50F8042B51F8043B38
:100690009A4221D1A2EB0C03934313EACC1317D156
:1006A00050F8042B51F8043B9A4215D1A2EB0C03ED
:1006B000934313EACC130BD150F8042B51F8043BAD
:1006C0009A4209D1A2EB0C03934313EACC13DBD07B
:1006D0004FF00000704700BFD01A01BAB1FA81F1A3
:1006E00001F0180122FA01F0CB40C1F12001DBB288
:1006F000C0B2C01A2CFA01F3D11A914311EAC31106
:10070000E6D1704770477047704770B504468569F9
:100710000068C10601D5302600E02026C00707D0BA
:1007200070BDD4E9012130469047206A401C206208
:100730006D1EF6D570BD70B5044685690078C0079A
:1007400007D170BDD4E9012120209047206A401CC8
:1007500020626D1EF6D570BD09684A0501D540B20C
:100760007047C905FCD500B2704709684A0501D534
:10077000C0B27047C905FCD580B270472DE9F0477B
:100780000D4699469246044600F124080168880601
:1007900004D5E06921F01001216000E00120A842A9
:1007A00001DD471B00E00027A1697A1902EB09006F
:1007B000081AA0612078C00602D42046FFF7A5FFE2
:1007C000002608E0D4E901211AF806009047206AC3
:1007D000401C761C20624E45F4DB2078C0060AD50A
:1007E0002046FFF792FF06E0D4E901213020904730
:1007F000206A401C2062381EA7F10107F4DC07E0E4
:10080000D4E9012118F805009047206A401C2062B5
:10081000281EA5F10105F3DC2046FFF78CFF2078A8
:10082000000602D50220BDE8F0870120FBE7116831
:100830000268006A530501D508700AE0D30501D5A6
:10084000088006E0130603D5C217C1E9000200E0E4
:10085000086001207047000001694A1C02610878A5
:10086000704700B58FB0CDE90131002105910549F0
:100870007944CDE9031011466846FFF7F3FD0FB048
:1008800000BD0000E5FFFFFF0A6802F8010B0A60E7
:100890007047D1E900239A4202D2531C0B601070BA
:1008A000704710B5436913B1AFF3008001E0FFF763
:1008B00073FD012010BD127800F124010A7000229E
:1008C0004A700122EDE711684FF0FF32E9E70000BE
:1008D0002DE9FF5F15468A460446DFF8AC80F844F0
:1008E0000027D8E900103E46CDE9001010E03AF8A4
:1008F00016106A4602A800F0F1FC411C07D02178CE
:10090000890603D5E269391891420DD80744761C4F
:100910002078800602D5E069B84205DDAE42E6DB0C
:100920003AF816000028E2D1A069C01BA061204659
:10093000FFF7EBFED8E90010CDE90010002017E02A
:100940003AF818106A4602A800F0C8FCB0F1FF3F60
:1009500081460BD000250DF1080B05E0D4E90121FB
:100960001BF8050090476D1C4D45F7D308F10100B9
:10097000B0428046E4DB206A384420622046FFF71C
:10098000DAFEBDE8FF9F00008A2300002DE9F04158
:100990008046D21D22F007020025D2E90002F52987
:1009A00015A614D0011E72F1000106DA0023D0EB67
:1009B000030063EB020211A608E0D8F800108B07D1
:1009C00001D50FA602E0490701D50EA60125114663
:1009D000002408F1240704E000F098F830323A557A
:1009E000641C50EA0102F7D12B46324621464046AC
:1009F000BDE8F041FFF7C2BE000000002D0000007E
:100A00002B0000002000000030B4002100F124047D
:100A100008E002F00705D208303542EA4372DB08ED
:100A20006554491C52EA0305F3D10468002310A25F
:100A3000250707D5A40600D421B1C46901230DA25E
:100A4000641EC46130BCFFF799BE10B50446214650
:100A50001068FFF78AFE02462046BDE810400023DA
:100A6000D2E7D21D22F00701D1E90023CCE7000034
:100A70000000000030000000F0B40D4601880905B8
:100A800002D5214C7C4402E01F4C7C440E340021F2
:100A900000F1240608E002F00F071209E75D42EAC0
:100AA00003721B097754491C52EA0307F3D10278F9
:100AB0000023120704D5702D06D009B1022311348A
:100AC0002246F0BCFFF75ABE01231034F8E770B598
:100AD00004460D4621461068FFF747FE02462946A8
:100AE0002046BDE870400023C6E7D21D22F0070370
:100AF000D3E90023C0E70368126843F020030360D2
:100B00000823C3610023B7E7EC21000030B5B0F142
:100B10000A024FEA900E71F100034EEA817EB0EBBB
:100B20000E0061EB91014FEA101E4EEA017E10EBC0
:100B30000E0041EB11114FEA102E4EEA016E10EB40
:100B40000E0041EB11214FEA104E4EEA014E10EB20
:100B50000E0041EB1141401841F100014FEAD00075
:100B600040EA41704FEAD10110EB80054FEA810461
:100B700044EA907444EB01046D1944EB0404521BE5
:100B8000A3414FF0000348BF0A3200D530BD401CDE
:100B900041F1000130BD70472DE9FF4F0C461E4664
:100BA0004FF0FF378BB0D2E90001DDF860800A908A
:100BB0008A46C1F30A5505B93D46002108464FF063
:100BC0000000BAF1000F00F4400005DA00EB8000ED
:100BD0004FF4400101EA50004FEA9059B9F1010F7A
:100BE00000DDB9460A9850EA4A000ED044F610508B
:100BF000A5F2FF3545432F14B8F1000F1ED0754202
:100C0000291E1EDDC9F100021CE0B8F1010F4FF0F2
:100C1000000001D0302103E0F24305E02154401CE4
:100C2000B042FBDB30460022002121540B99C1F871
:100C30000880C1E900200FB0BDE8F08FBD1B6D1C1E
:100C4000DEE74A4600DA694206A800F0D9FB06ABA7
:100C500093E8070003AB83E8070050460A9900F0C9
:100C600056FC8DE80700A0F500501F38009003984F
:100C7000002D0ADD42F21F014A460844002303A961
:100C80000390684600F0BFFE09E0A0F500504A4618
:100C90001F38002303A90390684600F0C9FE8DE8C1
:100CA00007000004000C03D04FF0FF30410800E0C3
:100CB0001046B8F1000F03D00022009215461EE046
:100CC000751E05D4FFF722FF303262556D1EF9D52F
:100CD000B3460122084302D000227F1C04E02078A2
:100CE000302801D100227F1E002A099784D01DE000
:100CF000112D07DAFFF70AFF303262556D1C50EAFA
:100D00000102F5D1084302D00098C8B10EE00021DD
:100D1000681E05E0235C625C63542254401E491C3B
:100D20008142F7DBAB46A81B401E0990002004F867
:100D30000B000B98099AC0F80880C0E9002B7AE7ED
:100D400011264FF0000857E72DE9F04F884604467A
:100D5000D21D22F0070191B0D1E90001CDE90A01CD
:100D600001F086FB02460B98C00F01D02D2007E052
:100D70002068810701D52B2002E0202101EAC00074
:100D8000032A099001D0072A05DB03464146204685
:100D900000F0F6FA0BE12078800601D5E06900E06A
:100DA0000620B8F1650F814606D0B8F1660F18D05D
:100DB000B8F1670F70D131E00020B9F1110F009048
:100DC00001DB112301E009F101030AAA01A90CA822
:100DD000FFF7E2FEDDE90C70002609F1010583460C
:100DE00047E001204B4600904FF000470AAA01A9B6
:100DF0000CA8FFF7D1FEDDE90DB00C995D46002689
:100E000010B909F101000D18B9EB050003D4C0F1C8
:100E1000FF3609F10105A5EB09002BE0B9F1010F3F
:100E200001DA4FF001090020B9F1110F0090484696
:100E300001DD112300E003460AAA01A90CA8FFF76F
:100E4000ABFEDDE90C704D46002683462078000796
:100E50000AD4AB4500DA5D4601A8012D04DD411935
:100E600011F8011C302907D04F4502DA17F1040FA1
:100E700004DA012082460FE06D1EEEE7002F02DC4F
:100E8000ED1B3E4403E0781CA84200DD7D1CB81B2E
:100E900000F1010A4FF000472078000703D4AA456B
:100EA00001DB4FF0FF3A0021B7F1004F0DF143088D
:100EB0008DF8431024D002202B23002F01DA7F422B
:100EC0002D230A21021EA0F1010000DC5FB197FB77
:100ED000F1FC97FBF1F201FB1C7C17460CF1300C86
:100EE00008F801CDEEE7A8F101000370218809059B
:100EF00001D5452100E06521A0F1010800F8011CA1
:100F000009980FA9A1EB0807FF1D00B101204119A5
:100F100001EBEA70A1693844081A401EA0612078EC
:100F2000C00602D42046FFF7F0FB099828B1D4E9A7
:100F300001219047206A401C20622078C00622D5FB
:100F40002046FFF7E2FB1EE0002E04DBB34502DD86
:100F500001A8805D00E03020D4E901219047206A9B
:100F6000401C2062761CAAF101005FEA000A0AD147
:100F700000F002FAC0680168405CD4E901219047A2
:100F8000206A401C2062281EA5F10105DCDC07E078
:100F9000D4E9012118F8010B9047206A401C206217
:100FA000381EA7F10107F3DC2046FFF7C4FB03203E
:100FB00011B041E62DE9F04F04460D46D21D22F056
:100FC000070089B0D0E900974846394601F050FA49
:100FD0000246F80F01D02D2307E02068810701D5D4
:100FE0002B2302E0202101EAC0038DF820300BB151
:100FF000012000E00020032A824601D0072A04DBFA
:101000002946204600F0BCF93FE12078800601D453
:101010000D2500E0E569C7F30A560D2D49DA0021D8
:101020004FEA175B08464FF00000002F00F4400025
:1010300007DA00EB80004FF4400100EBD07001EACA
:1010400060008115012901DD4FF0FF3100224FEAD8
:10105000850CBCF1180F06D31346ACF118004FF005
:101060008052C24003E04FF4801323FA0CF30CF1DA
:101070000C0CBCF1200F04D3ACF1200C09FA0CF0DD
:1010800001E007FA0CF000294FF0004801DD18B923
:101090000FE00ED140450CD319EB02095F4121B995
:1010A000404502D19F4329EA0209BBEB175F00D0FC
:1010B000761C2088000502D57B48784402E07A48F7
:1010C0007844193808AA302302F80A30037C0AF160
:1010D0000101002E0AF1020A53546A4602DC4FF065
:1010E000300101E04FF031014FF001088DF80010A0
:1010F00002D0A6F2FF3603E059EA470100D06B4E5A
:10110000002D02DC2178090704D54FF002082E21BA
:101110008DF80110C44600210BE0C7F303433F01E3
:10112000C35C491C6D1E02F80830052908F101084E
:1011300001DA002DF1DC00210CE000EB1973491CF1
:101140001B786D1E082902F808304FEA091908F1CA
:10115000010801DA002DF0DC21688B0602D516E0CB
:10116000A8F10108E04505DD02EB080313F8013C96
:10117000302BF5D0B8F1000F09DD02EB080313F8AE
:10118000013C2E2B03D1090701D4A8F10108002D41
:1011900005DD3E2102F808106D1E08F10108407CB3
:1011A000002E02F8080008F1010804DA2D2076422A
:1011B00002F8080002E02B2002F808000A214FF490
:1011C0007A70864208F101080BDB96FBF0F33033AE
:1011D00002F8083096FBF0F308F1010800FB1366F3
:1011E00001E0642E0CDB642096FBF0F3303302F850
:1011F000083096FBF0F308F1010800FB136601E0EC
:101200000A2E06DB96FBF1F0303002F8080008F1F8
:10121000010896FBF1F001FB1060303002F8080085
:10122000A16908F1010808EB050202EB0A00081A9F
:10123000A0612078C00602D42046FFF766FA216A32
:1012400008AE01EB0A00206204E0D4E9012116F89F
:10125000010B9047BAF1010AF7D22078C00602D5F7
:101260002046FFF752FA6E4609E016F8010B3E28B9
:101270000FD0D4E901219047206A401C2062B8F1C8
:101280000108F2D22046FFF756FA09B00320BDE864
:10129000F08F206A2844206203E0D4E90121302045
:1012A00090476D1EEBD3F8E7F11B000002FCFFFF37
:1012B00010B5436913B1AFF3008001E0FFF708FBFD
:1012C000012010BD128800F1240182840022C28412
:1012D0000122EDE711684FF0FF32E9E770B51646DD
:1012E0000C46054600F040F8036893F80101012818
:1012F00006D0FF2C0FD8185D68B101202C7070BD8E
:10130000D3F807013246214603F207130344284667
:10131000BDE8704018474FF0FF3070BD754600F0D3
:10132000EBF8AE4605006946534620F007008546B7
:1013300018B020B5FEF7EEFFBDE820404FF00006E4
:101340004FF000074FF000084FF0000B21F00701AD
:10135000AC46ACE8C009ACE8C009ACE8C009ACE8F0
:10136000C0098D467047000010B500F005F8001D5B
:1013700010BD00BF9D1800000048704760020020AB
:101380002DE9F0411F46044603260168072A01F4AF
:10139000006004DB08B116A505E016A503E008B15E
:1013A00015A500E015A521F010002060A069C01E61
:1013B000A0610FB1401EA0612046FFF7A6F94FB112
:1013C000D4E9012138469047206A401C2062C01CA5
:1013D000206206E0206AFAE7D4E9012115F8010B42
:1013E0009047761EF8D22046FFF7A5F9BDE8F081B8
:1013F0004E414E006E616E00494E4600696E6600B9
:101400002DE9F047814616468AB0354878440DC824
:101410008DE80D0032487844801C03AC0DC884E888
:101420000D0041F69B300844372190FBF1F290FB10
:10143000F1F5A5F1800501FB12041B3C02D56442C5
:10144000012000E00020DFF898A080460027FA4441
:10145000AAF1BE0A0EE0E0070AD03246684607EB62
:10146000470101230AEB810100F0E2FA8DE8070051
:1014700064107F1C002CEED1194F7F44AE3F19E061
:10148000E80715D007EB04100DF1180A90E80E00DC
:101490008AE80E00C068F04201D1981908903246DF
:1014A000012306A903A800F0C3FA03AB83E80700F1
:1014B0006D10641C002DE3D14FF0010332466946E4
:1014C000B8F1000F03A802D000F09DFA01E000F08F
:1014D000AFFAC9E90001C9F808200AB0BDE8F087F1
:1014E0003019000010B50446AFF300802046BDE877
:1014F0001040FEF7FABE000000487047400200208E
:1015000001491820ABBEFEE72600020070475FEAE3
:10151000400C08BF91F0000F4FEA8C234FEAC12224
:1015200043EA51514FEA1C5018BF00F5F0404FEA12
:10153000300018BF41F000415FEA6C5C00F0298088
:10154000BCF1FF3F08BF40F080407047130C06BF5E
:1015500012044FF0100C4FF0000C130E04BF1202D7
:101560000CF1080C130F04BF12010CF1040C930FC3
:1015700004BF92000CF1020CD30F04BF52000CF117
:10158000010C11464FF00002A0F11F00A0EB0C006F
:10159000704711F0004F08BF704731F000413FF431
:1015A000D5AF0B0C06BF09044FF0100C4FF0000C28
:1015B0000B0E04BF09020CF1080C0B0F04BF09014C
:1015C0000CF1040C8B0F04BF89000CF1020CCB0F43
:1015D00004BF49000CF1010CCCF12003A0EB0C007E
:1015E00022FA03F302FA0CF241EA030100F10100CE
:1015F000704720F07F4C80EA030023F07F47ACEB7C
:10160000070303F57C5300F0004003F1FF032DE9CD
:1016100080494FEA154B09B44FEA144325EA0B4EB3
:1016200024EA03480FF2042606EB132749083E7804
:101630005FEA320203FB0667C7F5000707FB06F601
:101640004FEA54374FEAD64606F1020607FB066C0E
:10165000CCF1005C4FEA1C472CEA074C07FB06F470
:101660000CFB06F504EB15464FEA961634BF002036
:101670004FF000404FEAD13706FB07FC4FEA1C4C05
:101680000CFB0BF7D21B03FB0CF761EB07010CFB08
:101690000EF7B0EB074072EB17420CFB08F734BFB4
:1016A000A2EB0742B2EB074261EB17414FEA0C4451
:1016B0004FEA910706FB07FC4FEA1C4C0CFB0BF7AB
:1016C000B0EBC74072EB573203FB0CF734BFA2EB11
:1016D000C742B2EBC74261EB57310CFB0EF7B0EBE0
:1016E000C70072EB57720CFB08F734BFA2EBC702BE
:1016F000B2EBC70261EB5771039F4FEA816141EA88
:10170000921104EBCC044FEAD1374FEA826206FB18
:1017100007FC42EA90124FEA80604FEA1C4C0CFB37
:101720000BF7D21B03FB0CF761EB07010CFB0EF769
:10173000B0EB074072EB17420CFB08F734BFA2EB8B
:101740000742B2EB074261EB17414FEA8C554FEA73
:10175000910704EB9C2406FB07FC4FEA1C4C0CFB96
:101760000BF7B0EBC74072EB573203FB0CF734BFFB
:10177000A2EBC742B2EBC74261EB57310CFB0EF74D
:10178000B0EBC70072EB57720CFB08F734BFA2EB4B
:10179000C702B2EBC70261EB577115EB4C254FEA5C
:1017A000816141EA92114FEA82624FEAD13742EAFF
:1017B000901206FB07FC44F100044FEA80604FEAF8
:1017C0001C4C0CFB0BF7D21B03FB0CF761EB070166
:1017D0000CFB0EF7B0EB074072EB17420CFB08F75F
:1017E00034BFA2EB0742B2EB074261EB174115EBA6
:1017F0001C154FEA813141EA92414FEA823242EAB6
:1018000090424FEA80304FEA0C7644F1000448EAF7
:1018100003434EEA0B484FF0000EB2EB080C71EB9D
:10182000030724BF624639464EEB0E0E4FF0000B05
:101830000018524149414BEB0B0BB2EB080C71EB1A
:1018400003077BF1000B24BF624639464EEB0E0EB8
:101850004FF0000B0018524149414BEB0B0BB2EB20
:10186000080C71EB03077BF1000B24BF624639467D
:101870004EEB0E0E51EA020718BF46F0010616EBBA
:101880000E7655F1000254F1000103D5BDE889013F
:10189000BDE80088BDE88901BDE80048B61952419D
:1018A00041EB0101A3F10103704780807F7E7D7CC5
:1018B0007B7A7978777676757473727171706F6EE2
:1018C0006E6D6C6C6B6A6A6968686766666564648D
:1018D000636362616160605F5F5E5E5D5D5C5C5B17
:1018E0005B5A5A5959585857575656555555545486
:1018F000535352525251515050504F4F4F4E4E4DE4
:101900004D4D4C4C4C4B4B4B4A4A4A49494948482F
:10191000484747474746464645454544444444436F
:1019200043434342424242414141002B9C4630D412
:1019300077002BD01CB54FEA370703B44FF01000E7
:101940004FF01001BAF1000F06D0BCF1000FDCBF60
:1019500040F0080040F008014FF000000FBCBDE867
:1019600010400BF1010BBBF1010F08BF5FEA170735
:1019700022BF12F1010211F101014FF0004143F1C8
:10198000000300F0004043EA00007047F9D3570815
:10199000D0E746EA064613F1400F4FEA16461FDD30
:1019A00013F1200FDFBF16430A46002120335B42AC
:1019B000BED0C3F1200746EA064602FA07F74FEA0F
:1019C000164646EA0706C3F1200722FA03F201FA97
:1019D00007F721FA03F14FF0000342EA0702A7E7F5
:1019E00046EA020646EA06464FEA164646EA010677
:1019F000BCBF46EA0646360C4FF000034FF000022B
:101A00004FF0000194E72DE9804C9A46934670B45C
:101A100091E8380007C831EA400C48BF34EA430C6B
:101A200003D5FFF7E6FDFFF780FFF0BCBDE8008CB3
:101A30002DE9804C9A46934670B491E8380007C867
:101A400010F0804F08BF13F0804F03D100F005F86D
:101A5000FFF76BFFF0BCBDE8008C20F07F4780EA09
:101A6000030023F07F4C07EB0C03A3F57C5300F03D
:101A70000040A3F1FE0392F0000F00F0B38095F058
:101A8000000F00F077802DE901494FEA11404FEA3D
:101A9000144621EA004800FB06FC24EA064708FB3E
:101AA00006F607FB08F800FB07F718EB06484CEBB7
:101AB000164C4FEA124B18EB07484FEA15464CEB11
:101AC000174022EA0B4E0BFB06FC25EA06470EFBED
:101AD00006F607FB0EFE0BFB07F71EEB064E4CEB64
:101AE000164C4FF000061EEB074E4CEB174B18EB55
:101AF0000B0840F1000018EB0E0B58EB000840F10A
:101B000000008F1A4FF000013CBFC943661B14BF91
:101B1000B5EB040C00213CBFC943F61B4FEA174448
:101B20004EEA8E0E27EA04454FEA1C4704FB076283
:101B30002CEA074C05FB07F70CFB05F604FB0CFC35
:101B400016EB074642EB174216EB0C4642EB1C42E3
:101B50001BEB060658EB0202414146EA9E0601D500
:101B6000BDE80189B619524141EB0101A3F101031E
:101B7000BDE801894FEA14454FEA114724EA0546BA
:101B800021EA074C05FB07F406FB07F70CFB06F1FF
:101B900005FB0CFC11EB074144EB17444FEA1247DD
:101BA00011EB0C4144EB1C4422EA074C05FB07F205
:101BB00006FB07F70CFB06F605FB0CFC16EB0746CD
:101BC00042EB174216EB0C4642EB1C456A1854F1E7
:101BD000000148BF7047B619524141EB0101A3F122
:101BE0000103704795F0000F37D04FEA11424FEADA
:101BF000144721EA024624EA074C02FB07F106FBE0
:101C000007F70CFB06F402FB0CFC14EB074441EB5A
:101C100017414FEA154714EB0C4441EB1C4125EAF0
:101C2000074C02FB07F506FB07F70CFB06F602FB69
:101C30000CFC16EB074645EB174516EB0C4645EB3F
:101C40001C42121951F1000148BF7047B6195241A8
:101C500041EB0101A3F1010370474FEA14454FEA3C
:101C6000114724EA054621EA074C05FB07F106FB6C
:101C700007F70CFB06F24FF0000605FB0CFC12EB1D
:101C8000074241EB174112EB0C4251EB1C4148BF9C
:101C90007047921841EB0101A3F10103704700BFA7
:101CA000FEE77047F0B504461A49086814B1012CE4
:101CB00009D103E01849B0FBF1F005E04FF47A7167
:101CC000B0FBF1F000E0F0BD00BF0246511EB1F1E3
:101CD000807F00D31BE0511E4FF0E023596159175C
:101CE0000F23002907DA1D072F0E0C4D01F00F06F8
:101CF000361FAF5503E01D072E0E094D6E5400BF71
:101D000000214FF0E02399610721196100BF00BF56
:101D1000D9E700000000002040420F0018ED00E06D
:101D200000E400E010B504460120FFF7BBFF08E027
:101D300000BF4FF0E020006900F480300028F8D0A8
:101D4000641E002CF4D100F0D7FB10BD10B5044682
:101D500048212046FEF76EFC02A1E01DFEF746FC7E
:101D600010BD000056312E3000000000F0B50A46CC
:101D700000210023002400BF3DE0012505FA01F306
:101D8000156805EA03049C4234D105684F00032618
:101D9000BE40B543056015794E00B5400668354331
:101DA00005601579012D02D01579022D16D18568AF
:101DB0004F000326BE40B543856055794E00B540BF
:101DC000866835438560456801268E40B543456089
:101DD000456896798E40B6B235434560C5684F0078
:101DE0000326BE40B543C560D5794E00B540C668F0
:101DF0003543C560491C1029BFD3F0BD0246002001
:101E000013690B400BB1012000E0002070474183B3
:101E100070470183704742694A404261704700BF82
:101E2000FEE710B504462046FFF790FF10BD00BF47
:101E3000FEE7704770B5002100230F22C4781CB361
:101E4000174C246804F4E064C4F5E064C4F307218B
:101E5000C1F10404E3B20A4144789C40E1B28478C1
:101E6000144021430C07210E0E4C0578615504786F
:101E700004F01F050124AC4005786D11AD0005F19B
:101E8000E025C5F8004109E0047804F01F050124AD
:101E9000AC40054D0678761145F8264070BD00002F
:101EA0000CED00E000E400E080E100E002490143C5
:101EB000024A1160704700000000FA050CED00E0D6
:101EC0007047000029B1064A12680243044B1A60A9
:101ED00004E0034A12688243014B1A607047000015
:101EE0003038024029B1064A12680243044B1A6096
:101EF00004E0034A12688243014B1A6070470000F5
:101F000040380240F0B500210022002402250026BE
:101F10000223324F3F6807F00C0121B1042905D09C
:101F2000082937D105E02E4F076036E02C4F0760B7
:101F300033E02A4F3F1F3F68C7F38056274F3F1FAC
:101F40003F6807F03F036EB1254FB7FBF3F7DFF8AB
:101F50008CC0ACF1040CDCF800C0CCF3881C07FB8F
:101F60000CF40CE01E4FB7FBF3F7DFF870C0ACF1D8
:101F7000040CDCF800C0CCF3881C07FB0CF4174FF2
:101F80003F1F3F68C7F301477F1C7D00B4FBF5F797
:101F9000076002E0124F076000BF00BF0F4F3F68AD
:101FA00007F0F00109090F4F7A5C0768D7404760D6
:101FB0000A4F3F6807F4E051890A0A4F7A5C476884
:101FC000D7408760054F3F6807F46041490B054FD4
:101FD0007A5C4768D740C760F0BD0000083802400F
:101FE0000024F400140000207047014601207047CF
:101FF0000CB50020019000904148006840F480300A
:102000003F49086000BF3E48006800F4003000907F
:102010000198401C0190009818B90198B0F5A04FA4
:10202000F1D13748006800F4003010B10120009071
:1020300001E0002000900098012860D13048403035
:10204000006840F080502E49403108602D480068FB
:1020500040F440402B49086029480830006828496E
:10206000083108600846006840F4004008600846EF
:10207000006840F4A05008602348091F0860081F4A
:10208000006840F08070091F086000BF1C480068AD
:1020900000F000700028F9D01A48006840F4803041
:1020A0001849086000BF1748406800F480300028D5
:1020B000F9D01448006840F400301249086000BFAD
:1020C0001048406800F400300028F9D040F2057054
:1020D0000E4908600A480830006820F003000849EB
:1020E000083108600846006840F00200086000BF40
:1020F00003480830006800F00C000828F8D10CBD37
:102100000038024000700040085A4007003C02407E
:102110007047000070B505460DB9002070BD002461
:1021200027E004EB4402164850F822102846FEF738
:10213000A9FAE8B920460DE000EB4002104901EB96
:102140008202411C01EB41030D4901EB83064ACE9B
:102150004AC2401C0A49083909688142ECD808483B
:1021600008380068401E0649083908600120D5E794
:10217000641C034808380068A042D2D80020CDE78C
:10218000400000202DE9F04105460C4616460DB1F1
:1021900004B116B90020BDE8F0812148006820494B
:1021A0004968884201D30020F5E74FF47A7000F0C7
:1021B00077F900270CE007EB47021948083050F880
:1021C00022102846FEF75EFA08B90020E3E77F1CDC
:1021D00013480068B842EED81148006800EB40018F
:1021E0000F48083040F821500838006800EB4001E3
:1021F0000B48083000EB810044600948006800EBA0
:1022000040010748083000EB810086600448006800
:10221000401C034908600120207000BFBBE700009C
:102220003800002010B51548006840F470001349CC
:1022300008601348006840F0010011490860002060
:102240000F49083108600E4800680E4908400C49E3
:1022500008600D48091D0860081F006820F48020F0
:10226000091F0860002006490C310860FFF7C0FE16
:102270004FF0006001498039086010BD88ED00E032
:1022800000380240FFFFF6FE1030002400B585B094
:102290004FF47A70FFF746FD4FF4A060FFF706FE9B
:1022A00001A8FFF72FFE01980BA3362210490090DA
:1022B000022000F071FB0F4A0F4910A0FFF762FFE8
:1022C00010A33A220A49022000F066FB01200A49C5
:1022D000087005B000BD000053797374656D20630C
:1022E0006C6F636B206973202564487A00000000DE
:1022F0004E2C0008C92B0008BC00002053797374D1
:10230000656D000053797374656D20737461727428
:102310002E2E2E0010B50121880700F04AF8A8B330
:102320000121880700F036F800242AE004EB44017C
:10233000174800EB810040680078012808D102218D
:1023400004EB4402124800EB82004068017017E081
:1023500004EB44010E4800EB81004068007802283D
:102360000ED1002104EB4402094800EB82004068D2
:10237000017004EB4402064901EB82018868804742
:10238000641C034808380068A042CFD810BD000084
:1023900040000020CA430282704721B1028842F007
:1023A0000102028004E002884FF6FE731A400280A8
:1023B000704730B50246002000230024158A05EA44
:1023C0000103958905EA010413B10CB1012000E075
:1023D000002030BD1AB183890B43838102E08389D9
:1023E0008B4383817047000000220288184B98427B
:1023F0000ED0184B98420BD0B0F1804F08D0164B3E
:10240000984205D0154B984202D0154B984204D102
:102410004FF68F731A404B881A43124B984207D0DD
:10242000114B984204D04FF6FF431A400B891A43D0
:1024300002804B68C3620B880385054B984202D02B
:10244000044B984201D18B7A038601238382704723
:10245000000001400004014000040040000800406A
:10246000000C0040001000400014004000BFFEE7D8
:1024700003B401984100009850EAC12018BF04201D
:102480004A0D18BF40F0010040F2FF72B2EB515FFD
:1024900008BF40F00200012808BF052002B07047C5
:1024A0001FB5044601210846FFF71CFD0020ADF8CA
:1024B0000C00ADF8060002942C20ADF8040001A930
:1024C0004FF08040FFF790FF012211469007FFF781
:1024D00081FF01208DF803001C208DF800000120F1
:1024E0008DF802008DF801006846FFF7A3FC01217A
:1024F0008807FFF752FF1FBD4FF0E020006920F072
:1025000001004FF0E0210861704730380A2801D2FD
:1025100001207047002070477CB504460D464FF4FB
:102520000031611A8A0A012101FA02F0FFF7CAFCA0
:1025300000200090019001208DF8040000208DF80B
:10254000060003208DF8050001208DF80700009596
:1025500069462046FFF70AFC7CBD7CB504460D4663
:102560004FF40031611A8A0A012101FA02F0FFF7E3
:10257000A9FC0020009001908DF8040002208DF845
:102580000700009569462046FFF7F0FB7CBD000080
:102590003EB5002401212C48FFF730FC012807D16B
:1025A00044F00104294800680A302849086002E024
:1025B00000202649086004F07F00254909788842F8
:1025C0003DD02448006888B304F001002049097810
:1025D00001F00101884228D00120019004F001009F
:1025E000C0B11A480068029002980A2803D100205E
:1025F0008DF8000014E00298B0F57A7F10D9C82158
:102600000298B0FBF1F201FB120048B902208DF8EC
:10261000000005E00D480068029001208DF80000E0
:102620000C4B9DE807001B68984700BF04F07F0033
:102630000749087044F080000749087001E0002055
:102640003EBD05480078FBE700000240AC000020DA
:10265000B0000020A80000203002002010B5044681
:1026600004F0010020B14FF400510948FFF7CFFBFF
:1026700004F00200022803D141030548FFF7C7FB1D
:1026800004480078204300F003000249087010BDA0
:10269000001802402002002010B5044604F001009A
:1026A00020B14FF400510948FFF7B3FB04F00200DA
:1026B000022803D141030548FFF7ABFB044800782B
:1026C000A04300F003000249087010BD001802404A
:1026D0002002002010B5044604F0010020B14FF4A0
:1026E00000510948FFF797FB04F00200022803D1CC
:1026F00041030548FFF78FFB04480078604000F075
:1027000003000249087010BD00180240200200209A
:1027100010B508480068401C064908600A21B0FB53
:10272000F1F201FB120008B9FFF732FF0120024964
:10273000087010BDB4000020A400002037B500F0E0
:1027400077F804460198012836D19DF8000020B1A1
:10275000012803D002282CD116E02BE000F094F8D9
:10276000407980B900F090F80121417101201449AD
:102770000870002048704FF4FA604860114A12490E
:1027800012A0FFF7FFFC15E040F6B831029888422E
:102790000ED100F079F8012101710120084908707B
:1027A0004870801E4860074A074908A0FFF7EAFC06
:1027B00000E000BF00BF00E03EBD00BF00BFFBE780
:1027C000CC000020E9280008D500002047524545EC
:1027D0004E5F4C45440000000020014908607047EE
:1027E000C000002010B50C480078012801D10B482A
:1027F00010BD01210A48FFF7B0FE0020074908700C
:1028000008488860084848600848C86001200249B4
:1028100008700248ECE70000B800002030020020F9
:1028200000000240912500088D2B0008BD2B0008F8
:1028300010B50F480078012801D10E4810BD4FF4A3
:1028400000510D48FFF768FE4FF480410A48FFF73A
:1028500063FE0320FFF702FF084806494860084866
:1028600088600848C8600120014908700148E5E710
:10287000A000002020020020001802409926000835
:102880005D260008D526000810B50F4800680F49DE
:102890000968884215D00D48FFF7C3FA04462CB1E9
:1028A0000A48006808490968884209D00748FFF7C4
:1028B0004DFA05480068054908600846FFF795FB92
:1028C00000BF024810BD0000107AFF1FD801002091
:1028D00004480068B0F57A7F01D9012070470020D4
:1028E000FCE70000C000002010B525480078B0B318
:1028F00023484078B8B122484068B0F1FF3F3BD050
:102900001F48406800280ADD1D484068401E1C49D9
:102910004860FFF78DFF44680120A0472CE00020AD
:102920001749087028E016484068B0F1FF3F23D0EF
:1029300014480068FA21B0FBF1F201FB1200D8B98B
:102940000F48406800280BDD0D484068401E0C49C8
:102950004860FFF76DFFC4680220A0470CE003E069
:1029600000200749087007E007A0FFF7D3FBFFF737
:102970005FFF84680120A04701200649087010BD50
:10298000CC000020C00000205245445F475245451E
:102990004E000000D50000200FB42DE9FC41054693
:1029A0000E46174600200190DDB11048009750F800
:1029B000252033460EA11248FDF7D8FC04460CA88A
:1029C0000190C4F580710E4A1019019B0B9AFDF716
:1029D000B3FC044440F60D20094908510020019041
:1029E00000BFBDE8FC015DF814FB000024000020DE
:1029F0005B25735D2D5B25733A25645D3A0000000D
:102A0000D8000020FFF742FCFFF73EFF0446FFF727
:102A10000FFFFFF7E7FE05462548E96888470120D4
:102A20006968884743E0FFF753FF012801D1FFF7AA
:102A3000D3FE2079012817D1012640F6B830FFF7E0
:102A400071F900201B4908706EB10120A0711A496C
:102A50000870002048704FF4FA604860174A18491F
:102A600018A0FFF78FFB00BF607901281FD1002657
:102A700040F6B830FFF756F900200E49087056B1FD
:102A800001200870487006204860104A104911A0C3
:102A9000FFF778FB0AE0012007490870487006201C
:102AA0004860064A064907A0FFF76CFB00BFBAE77B
:102AB0003D270008CC000020C4000020E12A0008C7
:102AC000D40000205245445F4C454400E9280008EA
:102AD000D5000020475245454E5F4C45440000005C
:102AE00010B525480078B0B323484078B8B12248E3
:102AF0004068B0F1FF3F3BD01F48406800280ADD26
:102B00001D484068401E1C494860FFF791FE44681C
:102B10000220A0472CE000201749087028E0164842
:102B20004068B0F1FF3F23D014480068FA21B0FBA1
:102B3000F1F201FB1200D8B90F48406800280BDD04
:102B40000D484068401E0C494860FFF771FEC4689C
:102B50000220A0470CE003E000200749087007E0CE
:102B600007A0FFF7D7FAFFF763FE84680220A047AB
:102B700001200549087010BDC4000020C0000020DD
:102B80005245445F4C454400D400002010B5044633
:102B900044B1064A064907A0FFF7F4FA01200449A8
:102BA000087002E003A0FFF7B5FA10BD1127000876
:102BB000A4000020427574746F6E00000149086023
:102BC00070470000A800002004480068401C03492A
:102BD000086001200249087070470000C000002012
:102BE000BC00002010B500290AD00878002807D0C2
:102BF00005487844FDF746FD002801D0002010BDAF
:102C00000248784410BD0000C2010000BA01000073
:102C100010B500290AD00878002807D00548784464
:102C2000FDF730FD002801D0002010BD0248784497
:102C300010BD0000B2010000AA0100004FF040707A
:102C4000E1EE100A7047FEF77FB8FEF7B3B953798B
:102C50007374656D5F496E697400040000080000BC
:102C60000000000000020001000010000000000051
:102C700000000000303132333435363738394142C4
:102C800043444546403058003031323334353637CE
:102C900038396162636465664030780030313233C0
:102CA0003435363738396162636465667870003070
:102CB000313233343536373839414243444546584A
:102CC0005000000002400000000000A000000000D2
:102CD00005400000000000C8000000000C4000009B
:102CE0000000409C00000000194000000020BCBE15
:102CF0000000000034400000BFC91B8E000000042B
:102D0000B5400000504BCFD06607E2CF0100000075
:102D10006C4100003E8251AADFEEA73401000000A2
:102D2000D9420000DCB5A0E23A301F97FFFFFFFF59
:102D3000B4450000FD25A0C8E9A3C14FFFFFFFFF78
:102D4000FF3F00000000008000000000FF3F000087
:102D500000000080000000004C4F472D434C4F53B3
:102D6000450000004C4F472D4445425547000000A8
:102D70004C4F472D5741524E490000004C4F472DB4
:102D8000494E464F520000004C4F472D4552524F7E
:102D900052000000E02E000800000020D8000000D3
:102DA000E8010008B82F0008D8000020C813000070
:102DB000040200081C00000043000000F8FFFFFFB1
:102DC0000C0000000E0000000F0000002E000000AC
:102DD0001001000043000000F8FFFFFF00404040EA
:102DE00040404040404041414141414040404040DE
:102DF000404040404040404040404040400502028A
:102E00000202020202020202020202020220202048
:102E100020202020202020020202020202029090A4
:102E200090909090101010101010101010101010A2
:102E300010101010101010100202020202028888F6
:102E40008888888808080808080808080808080802
:102E500008080808080808080202020240000000EA
:102E60000000000000000000000000000000000062
:102E70000000000000000000000000000000000052
:102E80000000000000000000000000000000000042
:102E90000000000000000000000000000000000032
:102EA0000000000000000000000000000000000022
:102EB0000000000000000000000000000000000012
:102EC0000000000000000000000000000000000002
:102ED00000000000000000000000000000000000F2
:102EE0000095BA0A0000000000000000010203047F
:102EF00006070809000000000102030401020304A0
:102F000006070809582D0008642D00087C2D0008CC
:102F1000702D0008882D0008000000000800000047
:102F200000000000000000000000000000000000A1
:102F30000000000000000000000000000000000091
:102F40000000000000000000000000000000000081
:102F50000000000000000000000000000000000071
:102F60000000000000000000000000000000000061
:102F70000000000000000000000000000000000051
:102F80000000000000000000000000000000000041
:102F90000000000000000000000000000000000031
:102FA0000000000000000000000000000000000021
:082FB000000000000000000019
:04000005080001AD41
:00000001FF
